{
  "contractName": "Commodity",
  "abi": [
    {
      "inputs": [
        {
          "internalType": "address",
          "name": "_userContract",
          "type": "address"
        }
      ],
      "payable": false,
      "stateMutability": "nonpayable",
      "type": "constructor"
    },
    {
      "constant": true,
      "inputs": [],
      "name": "UserContract",
      "outputs": [
        {
          "internalType": "address",
          "name": "",
          "type": "address"
        }
      ],
      "payable": false,
      "stateMutability": "view",
      "type": "function"
    },
    {
      "constant": true,
      "inputs": [],
      "name": "commoditiesforExchangeCount",
      "outputs": [
        {
          "internalType": "uint256",
          "name": "",
          "type": "uint256"
        }
      ],
      "payable": false,
      "stateMutability": "view",
      "type": "function"
    },
    {
      "constant": true,
      "inputs": [],
      "name": "commoditiesforSaleCount",
      "outputs": [
        {
          "internalType": "uint256",
          "name": "",
          "type": "uint256"
        }
      ],
      "payable": false,
      "stateMutability": "view",
      "type": "function"
    },
    {
      "constant": true,
      "inputs": [
        {
          "internalType": "uint256",
          "name": "",
          "type": "uint256"
        }
      ],
      "name": "forExchangecommodities",
      "outputs": [
        {
          "internalType": "uint256",
          "name": "id",
          "type": "uint256"
        },
        {
          "internalType": "string",
          "name": "name",
          "type": "string"
        },
        {
          "internalType": "uint256",
          "name": "price",
          "type": "uint256"
        },
        {
          "internalType": "address",
          "name": "owner",
          "type": "address"
        },
        {
          "internalType": "uint256",
          "name": "quantity",
          "type": "uint256"
        },
        {
          "internalType": "string",
          "name": "exchangewith",
          "type": "string"
        }
      ],
      "payable": false,
      "stateMutability": "view",
      "type": "function"
    },
    {
      "constant": true,
      "inputs": [
        {
          "internalType": "uint256",
          "name": "",
          "type": "uint256"
        }
      ],
      "name": "forSalecommodities",
      "outputs": [
        {
          "internalType": "uint256",
          "name": "id",
          "type": "uint256"
        },
        {
          "internalType": "string",
          "name": "name",
          "type": "string"
        },
        {
          "internalType": "uint256",
          "name": "price",
          "type": "uint256"
        },
        {
          "internalType": "address",
          "name": "owner",
          "type": "address"
        },
        {
          "internalType": "uint256",
          "name": "quantity",
          "type": "uint256"
        },
        {
          "internalType": "string",
          "name": "exchangewith",
          "type": "string"
        }
      ],
      "payable": false,
      "stateMutability": "view",
      "type": "function"
    },
    {
      "constant": true,
      "inputs": [
        {
          "internalType": "string",
          "name": "_name",
          "type": "string"
        }
      ],
      "name": "getSalecommoditytotalcount",
      "outputs": [
        {
          "internalType": "uint256",
          "name": "",
          "type": "uint256"
        }
      ],
      "payable": false,
      "stateMutability": "view",
      "type": "function"
    },
    {
      "constant": false,
      "inputs": [
        {
          "internalType": "string",
          "name": "_name",
          "type": "string"
        },
        {
          "internalType": "uint256",
          "name": "_quantity",
          "type": "uint256"
        },
        {
          "internalType": "address",
          "name": "_a",
          "type": "address"
        }
      ],
      "name": "addforSaleCommodities",
      "outputs": [],
      "payable": false,
      "stateMutability": "nonpayable",
      "type": "function"
    },
    {
      "constant": false,
      "inputs": [
        {
          "internalType": "uint256",
          "name": "i",
          "type": "uint256"
        },
        {
          "internalType": "uint256",
          "name": "_quantity",
          "type": "uint256"
        }
      ],
      "name": "decSaleCommodity",
      "outputs": [],
      "payable": false,
      "stateMutability": "nonpayable",
      "type": "function"
    },
    {
      "constant": false,
      "inputs": [
        {
          "internalType": "uint256",
          "name": "i",
          "type": "uint256"
        },
        {
          "internalType": "uint256",
          "name": "_quantity",
          "type": "uint256"
        }
      ],
      "name": "decExchangeCommodity",
      "outputs": [],
      "payable": false,
      "stateMutability": "nonpayable",
      "type": "function"
    },
    {
      "constant": false,
      "inputs": [
        {
          "internalType": "string",
          "name": "_name",
          "type": "string"
        },
        {
          "internalType": "uint256",
          "name": "_quantity",
          "type": "uint256"
        },
        {
          "internalType": "address",
          "name": "_a",
          "type": "address"
        },
        {
          "internalType": "string",
          "name": "_with",
          "type": "string"
        }
      ],
      "name": "addforExchangeCommodities",
      "outputs": [],
      "payable": false,
      "stateMutability": "nonpayable",
      "type": "function"
    },
    {
      "constant": false,
      "inputs": [
        {
          "internalType": "string",
          "name": "_name",
          "type": "string"
        },
        {
          "internalType": "address",
          "name": "_adress",
          "type": "address"
        },
        {
          "internalType": "string",
          "name": "_privatekey",
          "type": "string"
        }
      ],
      "name": "addUser",
      "outputs": [],
      "payable": false,
      "stateMutability": "nonpayable",
      "type": "function"
    },
    {
      "constant": true,
      "inputs": [],
      "name": "getSaleCommodityCount",
      "outputs": [
        {
          "internalType": "uint256",
          "name": "",
          "type": "uint256"
        }
      ],
      "payable": false,
      "stateMutability": "view",
      "type": "function"
    },
    {
      "constant": true,
      "inputs": [],
      "name": "getExchangeCommodityCount",
      "outputs": [
        {
          "internalType": "uint256",
          "name": "",
          "type": "uint256"
        }
      ],
      "payable": false,
      "stateMutability": "view",
      "type": "function"
    },
    {
      "constant": true,
      "inputs": [
        {
          "internalType": "uint256",
          "name": "index",
          "type": "uint256"
        }
      ],
      "name": "getSaleCommodityName",
      "outputs": [
        {
          "internalType": "string",
          "name": "",
          "type": "string"
        }
      ],
      "payable": false,
      "stateMutability": "view",
      "type": "function"
    },
    {
      "constant": true,
      "inputs": [
        {
          "internalType": "uint256",
          "name": "index",
          "type": "uint256"
        }
      ],
      "name": "getExchangeCommodityName",
      "outputs": [
        {
          "internalType": "string",
          "name": "",
          "type": "string"
        }
      ],
      "payable": false,
      "stateMutability": "view",
      "type": "function"
    },
    {
      "constant": true,
      "inputs": [
        {
          "internalType": "uint256",
          "name": "index",
          "type": "uint256"
        }
      ],
      "name": "getSaleCommodityQuantity",
      "outputs": [
        {
          "internalType": "uint256",
          "name": "",
          "type": "uint256"
        }
      ],
      "payable": false,
      "stateMutability": "view",
      "type": "function"
    },
    {
      "constant": true,
      "inputs": [
        {
          "internalType": "uint256",
          "name": "index",
          "type": "uint256"
        }
      ],
      "name": "getExchangeCommodityQuantity",
      "outputs": [
        {
          "internalType": "uint256",
          "name": "",
          "type": "uint256"
        }
      ],
      "payable": false,
      "stateMutability": "view",
      "type": "function"
    },
    {
      "constant": true,
      "inputs": [
        {
          "internalType": "uint256",
          "name": "index",
          "type": "uint256"
        }
      ],
      "name": "getSaleCommodityOwner",
      "outputs": [
        {
          "internalType": "address",
          "name": "",
          "type": "address"
        }
      ],
      "payable": false,
      "stateMutability": "view",
      "type": "function"
    },
    {
      "constant": true,
      "inputs": [
        {
          "internalType": "uint256",
          "name": "index",
          "type": "uint256"
        }
      ],
      "name": "getExchangeCommodityOwner",
      "outputs": [
        {
          "internalType": "address",
          "name": "",
          "type": "address"
        }
      ],
      "payable": false,
      "stateMutability": "view",
      "type": "function"
    }
  ],
  "bytecode": "0x608060405234801561001057600080fd5b50604051611bdc380380611bdc8339818101604052602081101561003357600080fd5b810190808051906020019092919050505033600460006101000a81548173ffffffffffffffffffffffffffffffffffffffff021916908373ffffffffffffffffffffffffffffffffffffffff16021790555080600560006101000a81548173ffffffffffffffffffffffffffffffffffffffff021916908373ffffffffffffffffffffffffffffffffffffffff16021790555050611b06806100d66000396000f3fe608060405234801561001057600080fd5b50600436106101215760003560e01c80635f3f7349116100ad578063ab038b1111610071578063ab038b1114610943578063d4b317311461097b578063e409e27f14610aed578063e6c9732514610bd2578063f67303f814610bf057610121565b80635f3f7349146104285780637ee146f01461046a578063889d2113146105e65780638c367f761461068d578063a4b127d3146107e857610121565b806333cfa353116100f457806333cfa353146102085780633b31fd821461022657806341ca4d5d146102945780634f53be961461033b57806359e13f5a1461035957610121565b8063070c20dc146101265780630809f3d91461015e5780630d84ffa3146101a05780631d006a9c146101be575b600080fd5b61015c6004803603604081101561013c57600080fd5b810190808035906020019092919080359060200190929190505050610c5e565b005b61018a6004803603602081101561017457600080fd5b8101908080359060200190929190505050610c85565b6040518082815260200191505060405180910390f35b6101a8610ca5565b6040518082815260200191505060405180910390f35b6101c6610cab565b604051808273ffffffffffffffffffffffffffffffffffffffff1673ffffffffffffffffffffffffffffffffffffffff16815260200191505060405180910390f35b610210610cd1565b6040518082815260200191505060405180910390f35b6102526004803603602081101561023c57600080fd5b8101908080359060200190929190505050610cdb565b604051808273ffffffffffffffffffffffffffffffffffffffff1673ffffffffffffffffffffffffffffffffffffffff16815260200191505060405180910390f35b6102c0600480360360208110156102aa57600080fd5b8101908080359060200190929190505050610d1a565b6040518080602001828103825283818151815260200191508051906020019080838360005b838110156103005780820151818401526020810190506102e5565b50505050905090810190601f16801561032d5780820380516001836020036101000a031916815260200191505b509250505060405180910390f35b610343610dd2565b6040518082815260200191505060405180910390f35b6104126004803603602081101561036f57600080fd5b810190808035906020019064010000000081111561038c57600080fd5b82018360208201111561039e57600080fd5b803590602001918460018302840111640100000000831117156103c057600080fd5b91908080601f016020809104026020016040519081016040528093929190818152602001838380828437600081840152601f19601f820116905080830192505050505050509192919290505050610ddc565b6040518082815260200191505060405180910390f35b6104546004803603602081101561043e57600080fd5b8101908080359060200190929190505050610f2a565b6040518082815260200191505060405180910390f35b6105e46004803603608081101561048057600080fd5b810190808035906020019064010000000081111561049d57600080fd5b8201836020820111156104af57600080fd5b803590602001918460018302840111640100000000831117156104d157600080fd5b91908080601f016020809104026020016040519081016040528093929190818152602001838380828437600081840152601f19601f82011690508083019250505050505050919291929080359060200190929190803573ffffffffffffffffffffffffffffffffffffffff1690602001909291908035906020019064010000000081111561055e57600080fd5b82018360208201111561057057600080fd5b8035906020019184600183028401116401000000008311171561059257600080fd5b91908080601f016020809104026020016040519081016040528093929190818152602001838380828437600081840152601f19601f820116905080830192505050505050509192919290505050610f49565b005b610612600480360360208110156105fc57600080fd5b810190808035906020019092919050505061105e565b6040518080602001828103825283818151815260200191508051906020019080838360005b83811015610652578082015181840152602081019050610637565b50505050905090810190601f16801561067f5780820380516001836020036101000a031916815260200191505b509250505060405180910390f35b6106b9600480360360208110156106a357600080fd5b8101908080359060200190929190505050611115565b60405180878152602001806020018681526020018573ffffffffffffffffffffffffffffffffffffffff1673ffffffffffffffffffffffffffffffffffffffff16815260200184815260200180602001838103835288818151815260200191508051906020019080838360005b83811015610741578082015181840152602081019050610726565b50505050905090810190601f16801561076e5780820380516001836020036101000a031916815260200191505b50838103825284818151815260200191508051906020019080838360005b838110156107a757808201518184015260208101905061078c565b50505050905090810190601f1680156107d45780820380516001836020036101000a031916815260200191505b509850505050505050505060405180910390f35b610814600480360360208110156107fe57600080fd5b81019080803590602001909291905050506112a1565b60405180878152602001806020018681526020018573ffffffffffffffffffffffffffffffffffffffff1673ffffffffffffffffffffffffffffffffffffffff16815260200184815260200180602001838103835288818151815260200191508051906020019080838360005b8381101561089c578082015181840152602081019050610881565b50505050905090810190601f1680156108c95780820380516001836020036101000a031916815260200191505b50838103825284818151815260200191508051906020019080838360005b838110156109025780820151818401526020810190506108e7565b50505050905090810190601f16801561092f5780820380516001836020036101000a031916815260200191505b509850505050505050505060405180910390f35b6109796004803603604081101561095957600080fd5b81019080803590602001909291908035906020019092919050505061142d565b005b610aeb6004803603606081101561099157600080fd5b81019080803590602001906401000000008111156109ae57600080fd5b8201836020820111156109c057600080fd5b803590602001918460018302840111640100000000831117156109e257600080fd5b91908080601f016020809104026020016040519081016040528093929190818152602001838380828437600081840152601f19601f820116905080830192505050505050509192919290803573ffffffffffffffffffffffffffffffffffffffff16906020019092919080359060200190640100000000811115610a6557600080fd5b820183602082011115610a7757600080fd5b80359060200191846001830284011164010000000083111715610a9957600080fd5b91908080601f016020809104026020016040519081016040528093929190818152602001838380828437600081840152601f19601f820116905080830192505050505050509192919290505050611455565b005b610bd060048036036060811015610b0357600080fd5b8101908080359060200190640100000000811115610b2057600080fd5b820183602082011115610b3257600080fd5b80359060200191846001830284011164010000000083111715610b5457600080fd5b91908080601f016020809104026020016040519081016040528093929190818152602001838380828437600081840152601f19601f82011690508083019250505050505050919291929080359060200190929190803573ffffffffffffffffffffffffffffffffffffffff16906020019092919050505061164d565b005b610bda6119e6565b6040518082815260200191505060405180910390f35b610c1c60048036036020811015610c0657600080fd5b81019080803590602001909291905050506119ec565b604051808273ffffffffffffffffffffffffffffffffffffffff1673ffffffffffffffffffffffffffffffffffffffff16815260200191505060405180910390f35b80600080848152602001908152602001600020600401600082825403925050819055505050565b600060016000838152602001908152602001600020600401549050919050565b60025481565b600560009054906101000a900473ffffffffffffffffffffffffffffffffffffffff1681565b6000600354905090565b600080600083815260200190815260200160002060030160009054906101000a900473ffffffffffffffffffffffffffffffffffffffff169050919050565b6060600160008381526020019081526020016000206001018054600181600116156101000203166002900480601f016020809104026020016040519081016040528092919081815260200182805460018160011615610100020316600290048015610dc65780601f10610d9b57610100808354040283529160200191610dc6565b820191906000526020600020905b815481529060010190602001808311610da957829003601f168201915b50505050509050919050565b6000600254905090565b6000806000905060008090505b6002548111610f2057836040516020018082805190602001908083835b60208310610e295780518252602082019150602081019050602083039250610e06565b6001836020036101000a038019825116818451168082178552505050505050905001915050604051602081830303815290604052805190602001206000808381526020019081526020016000206001016040516020018082805460018160011615610100020316600290048015610ed75780601f10610eb5576101008083540402835291820191610ed7565b820191906000526020600020905b815481529060010190602001808311610ec3575b5050915050604051602081830303815290604052805190602001201415610f135760008082815260200190815260200160002060040154820191505b8080600101915050610de9565b5080915050919050565b6000806000838152602001908152602001600020600401549050919050565b6003600081548092919060010191905055506040518060c001604052806003548152602001858152602001600081526020018373ffffffffffffffffffffffffffffffffffffffff16815260200184815260200182815250600160006003548152602001908152602001600020600082015181600001556020820151816001019080519060200190610fdc929190611a2c565b506040820151816002015560608201518160030160006101000a81548173ffffffffffffffffffffffffffffffffffffffff021916908373ffffffffffffffffffffffffffffffffffffffff1602179055506080820151816004015560a0820151816005019080519060200190611054929190611a2c565b5090505050505050565b60606000808381526020019081526020016000206001018054600181600116156101000203166002900480601f0160208091040260200160405190810160405280929190818152602001828054600181600116156101000203166002900480156111095780601f106110de57610100808354040283529160200191611109565b820191906000526020600020905b8154815290600101906020018083116110ec57829003601f168201915b50505050509050919050565b6000602052806000526040600020600091509050806000015490806001018054600181600116156101000203166002900480601f0160208091040260200160405190810160405280929190818152602001828054600181600116156101000203166002900480156111c75780601f1061119c576101008083540402835291602001916111c7565b820191906000526020600020905b8154815290600101906020018083116111aa57829003601f168201915b5050505050908060020154908060030160009054906101000a900473ffffffffffffffffffffffffffffffffffffffff1690806004015490806005018054600181600116156101000203166002900480601f0160208091040260200160405190810160405280929190818152602001828054600181600116156101000203166002900480156112975780601f1061126c57610100808354040283529160200191611297565b820191906000526020600020905b81548152906001019060200180831161127a57829003601f168201915b5050505050905086565b6001602052806000526040600020600091509050806000015490806001018054600181600116156101000203166002900480601f0160208091040260200160405190810160405280929190818152602001828054600181600116156101000203166002900480156113535780601f1061132857610100808354040283529160200191611353565b820191906000526020600020905b81548152906001019060200180831161133657829003601f168201915b5050505050908060020154908060030160009054906101000a900473ffffffffffffffffffffffffffffffffffffffff1690806004015490806005018054600181600116156101000203166002900480601f0160208091040260200160405190810160405280929190818152602001828054600181600116156101000203166002900480156114235780601f106113f857610100808354040283529160200191611423565b820191906000526020600020905b81548152906001019060200180831161140657829003601f168201915b5050505050905086565b8060016000848152602001908152602001600020600401600082825403925050819055505050565b600460009054906101000a900473ffffffffffffffffffffffffffffffffffffffff1673ffffffffffffffffffffffffffffffffffffffff163373ffffffffffffffffffffffffffffffffffffffff16146114af57600080fd5b6000600560009054906101000a900473ffffffffffffffffffffffffffffffffffffffff1690508073ffffffffffffffffffffffffffffffffffffffff1663597ce5778585856040518463ffffffff1660e01b815260040180806020018473ffffffffffffffffffffffffffffffffffffffff1673ffffffffffffffffffffffffffffffffffffffff16815260200180602001838103835286818151815260200191508051906020019080838360005b8381101561157a57808201518184015260208101905061155f565b50505050905090810190601f1680156115a75780820380516001836020036101000a031916815260200191505b50838103825284818151815260200191508051906020019080838360005b838110156115e05780820151818401526020810190506115c5565b50505050905090810190601f16801561160d5780820380516001836020036101000a031916815260200191505b5095505050505050600060405180830381600087803b15801561162f57600080fd5b505af1158015611643573d6000803e3d6000fd5b5050505050505050565b600080905060008090505b600254811115801561166a5750600082145b156118925782604051602001808273ffffffffffffffffffffffffffffffffffffffff1673ffffffffffffffffffffffffffffffffffffffff1660601b81526014019150506040516020818303038152906040528051906020012060008083815260200190815260200160002060030160009054906101000a900473ffffffffffffffffffffffffffffffffffffffff16604051602001808273ffffffffffffffffffffffffffffffffffffffff1673ffffffffffffffffffffffffffffffffffffffff1660601b815260140191505060405160208183030381529060405280519060200120141561188557846040516020018082805190602001908083835b6020831061178d578051825260208201915060208101905060208303925061176a565b6001836020036101000a03801982511681845116808217855250505050505090500191505060405160208183030381529060405280519060200120600080838152602001908152602001600020600101604051602001808280546001816001161561010002031660029004801561183b5780601f1061181957610100808354040283529182019161183b565b820191906000526020600020905b815481529060010190602001808311611827575b5050915050604051602081830303815290604052805190602001201415611884578360008083815260200190815260200160002060040160008282540192505081905550600191505b5b8080600101915050611658565b5060008114156119e0576002600081548092919060010191905055506040518060c001604052806002548152602001858152602001600081526020018373ffffffffffffffffffffffffffffffffffffffff1681526020018481526020016040518060400160405280600481526020017f6e756c6c000000000000000000000000000000000000000000000000000000008152508152506000806002548152602001908152602001600020600082015181600001556020820151816001019080519060200190611963929190611a2c565b506040820151816002015560608201518160030160006101000a81548173ffffffffffffffffffffffffffffffffffffffff021916908373ffffffffffffffffffffffffffffffffffffffff1602179055506080820151816004015560a08201518160050190805190602001906119db929190611a2c565b509050505b50505050565b60035481565b60006001600083815260200190815260200160002060030160009054906101000a900473ffffffffffffffffffffffffffffffffffffffff169050919050565b828054600181600116156101000203166002900490600052602060002090601f016020900481019282601f10611a6d57805160ff1916838001178555611a9b565b82800160010185558215611a9b579182015b82811115611a9a578251825591602001919060010190611a7f565b5b509050611aa89190611aac565b5090565b611ace91905b80821115611aca576000816000905550600101611ab2565b5090565b9056fea265627a7a72315820581587ffe44391642ea9270d3fa32b0fec7af2e8a563e186c1f1eaf157467d4164736f6c63430005100032",
  "source": "pragma solidity >=0.4.21 <0.7.0;\ncontract User{\n address public NotificationContract;\n  address public HistoryContract;\n    ////history struct\n\n   \n     constructor (address notfication,address History ) public payable {\n     NotificationContract= notfication;\n     HistoryContract=History;    \n     }\n   \n    struct user{\n        string name;\n        string privatekey;\n        uint256 balance;\n        mapping(uint256 => commodity) ownedCommodity;\n        mapping(uint256 => commodity) pendingSaleCommodity;\n        mapping(uint256 => commodity) pendingExchangeCommodity;\n        mapping(uint256 => commodity) pendingBuyCommodity;\n       \n       // mapping(uint256 => notification) Notification;\n       \n       ///////history lists\n      //  mapping(uint256 => history) SaleHistory;\n    //    mapping(uint256 => history) BuyHistory;\n     //   mapping(uint256 => history) ExchangeHistory;\n        ///////history list end\n       \n        uint256 OwnedCount;\n        uint256 pendingSaleCount;\n        uint256 pendingExchangeCount;\n        uint256 pendingBuyCount;\n        //uint256 notificationCount;\n       \n        ////history count\n        //uint256 HistorySaleCount;\n       // uint256 HistoryExchangeCount;\n    //    uint256 HistoryBuyCount;\n        ////history count end\n       \n    }\n   \n    struct commodity {\n        uint id;\n        string name;\n        uint price;\n        address owner;\n        uint quantity;\n        string namewith;\n    }\n   \n    //count no of users\n    uint public UserCount;\n    mapping(address => user) public users;\n   \n   \n   \n //create or modify a user data\n  function AddUser(string memory _name,address _address,string memory _privatekey) public {\n  //check if the user data exists in  table\n  //if not exist, create a new user in the table\n   Notification ContractNotification =Notification(address(NotificationContract));\n   History ContractHistory=History(address(HistoryContract));\n   \n      if(bytes(users[_address].name).length==0){\n         \n         users[_address] = user(_name,_privatekey,100,1,1,1,0);\n         UserCount++;\n         ContractNotification. addusernotification(_address);\n         ContractHistory.adduserhistory(_address);\n      }\n   \n }\n   \n  function AddBalance(address a,uint256 _b) public {\n         users[a].balance += _b;\n  }\n  function DecBalance(address a,uint256 _b) public{\n         users[a].balance -= _b;\n  }\n  //user balance\n  function getBalance(address a) public view returns (uint256) {\n        return users[a].balance;\n    }\n  ////owned commodities    \n  function getcommodityquantity(address p,string memory _name) public view returns (uint256)\n  {\n   \n        uint qty=0;\n           for (uint i = 1; i <= users[p].OwnedCount ; i++)// to check new commodity is ==gold silver or copper\n           {\n            //commare commodity name\n                if(keccak256(abi.encodePacked(users[p]. ownedCommodity[i].name))==keccak256(abi.encodePacked(_name)))\n                {\n                    qty=users[p]. ownedCommodity[i].quantity;\n               \n                }\n            }\n            return qty;\n    }\n  //owned commodities    \n  function addcommodity(address p,string memory _name, uint _quantity) public\n  {\n        uint t=0;\n           for (uint i = 0; i <= users[p].OwnedCount && t==0 ; i++)// to check new commodity is ==gold silver or copper\n           {\n            //commare commodity name\n                if(keccak256(abi.encodePacked(users[p]. ownedCommodity[i].name))==keccak256(abi.encodePacked(_name)))\n                {\n                    users[p].ownedCommodity[i].quantity +=_quantity;\n                    t=1;\n                }\n            }\n            if(t==0){\n                users[p]. ownedCommodity[users[p].OwnedCount]=commodity(users[p].OwnedCount, _name,0,p,_quantity,\"null\");\n                //users[p].ownedCommodity[users[p].OwnedCount].quantity +=_quantity;\n                users[p].OwnedCount++;\n            }\n    }\n  function deccommodity(address p,string memory _name, uint _quantity) public\n  {\n        uint t=0;\n           for (uint i = 0; i <= users[p].OwnedCount && t==0 ; i++)// to check new commodity is ==gold silver or copper\n           {\n            //commare commodity name\n                if(keccak256(abi.encodePacked(users[p]. ownedCommodity[i].name))==keccak256(abi.encodePacked(_name)))\n                {\n                    users[p]. ownedCommodity[i].quantity -=_quantity;\n                    t=1;\n                }\n            }\n           \n    }\n   \n  //add to pending list\n  function addtoSalePendinglist(address p,string memory _name, uint _price, uint _quantity) public\n  {\n        uint t=0;\n           for (uint i = 1; i <= users[p].pendingSaleCount && t==0 ; i++)// to check new commodity is ==gold silver or copper\n           {\n            //compare commodity name\n                if(keccak256(abi.encodePacked(users[p]. pendingSaleCommodity[i].name))==keccak256(abi.encodePacked(_name)))\n                {\n                    users[p]. pendingSaleCommodity[i].quantity +=_quantity;\n                    t=1;\n                }\n            }\n            if(t==0){\n                users[p]. pendingSaleCommodity[users[p].pendingSaleCount]=commodity(users[p].pendingSaleCount, _name,_price,p,_quantity,\"null\");\n                users[p].pendingSaleCount++;\n            }\n         \n           \n    }\n  function addtoExchangePendinglist(address p,string memory _name, uint _price, uint _quantity) public\n  {\n        uint t=0;\n           for (uint i = 1; i <= users[p].pendingExchangeCount && t==0 ; i++)// to check new commodity is ==gold silver or copper\n           {\n            //commare commodity name\n                if(keccak256(abi.encodePacked(users[p]. pendingExchangeCommodity[i].name))==keccak256(abi.encodePacked(_name)))\n                {\n                    users[p]. pendingExchangeCommodity[i].quantity +=_quantity;\n                    t=1;\n                }\n            }\n            if(t==0){\n                users[p]. pendingExchangeCommodity[users[p].pendingExchangeCount]=commodity(users[p].pendingExchangeCount, _name,_price,p,_quantity,\"null\");\n                users[p].pendingExchangeCount++;\n            }\n         \n           \n    }\n   \n   \n  function dectoSalePendinglist(address p,string memory _name, uint _quantity) public\n  {\n        uint t=0;\n           for (uint i = 1; i <= users[p].pendingSaleCount && t==0 ; i++)// to check new commodity is ==gold silver or copper\n           {\n            //commare commodity name\n                if(keccak256(abi.encodePacked(users[p].pendingSaleCommodity[i].name))==keccak256(abi.encodePacked(_name)))\n                {\n                    users[p].pendingSaleCommodity[i].quantity -=_quantity;\n                    t=1;\n                }\n            }\n           \n    }\n  function dectoExchangePendinglist(address p,string memory _name, uint _quantity) public\n  {\n        uint t=0;\n           for (uint i = 1; i <= users[p].pendingExchangeCount && t==0 ; i++)// to check new commodity is ==gold silver or copper\n           {\n            //commare commodity name\n                if(keccak256(abi.encodePacked(users[p].pendingExchangeCommodity[i].name))==keccak256(abi.encodePacked(_name)))\n                {\n                    users[p].pendingExchangeCommodity[i].quantity -=_quantity;\n                    t=1;\n                }\n           }\n    }\n   \n    //types of commodity   pending\n    function getPendingSaleCommodityCount(address _adress) public view returns (uint256) {\n         return users[_adress].pendingSaleCount;\n    }\n    function nameofSalePendingcommodity(address  p ,uint _index)public view returns (string memory name)\n    {\n        return users[p].pendingSaleCommodity[_index].name;\n    }\n     function getPendignSaleCommodityNameCount(address  p , string memory _name) public view returns (uint256) {\n          uint256 count;\n           for (uint i = 1; i <= users[p].pendingSaleCount; i++)// to check new commodity is ==gold silver or copper\n           {\n            //commare commodity name\n                if(keccak256(abi.encodePacked(users[p].pendingSaleCommodity[i].name))==keccak256(abi.encodePacked(_name)))\n                {\n                    count =users[p].pendingSaleCommodity[i].quantity;\n                   \n                }\n            }\n            return count;\n    }\n    function getPendingExchangeCommodityCount(address _adress) public view returns (uint256) {\n         return users[_adress].pendingExchangeCount;\n    }\n   \n    function nameofExchangePendingcommodity(address  p ,uint _index)public view returns (string memory name)\n    {\n        return users[p].pendingExchangeCommodity[_index].name;\n    }\n     function getPendignExchangeCommodityNameCount(address  p , string memory _name) public view returns (uint256) {\n          uint256 count;\n           for (uint i = 1; i <= users[p].pendingExchangeCount; i++)// to check new commodity is ==gold silver or copper\n           {\n            //commare commodity name\n                if(keccak256(abi.encodePacked(users[p].pendingExchangeCommodity[i].name))==keccak256(abi.encodePacked(_name)))\n                {\n                    count =users[p].pendingExchangeCommodity[i].quantity;\n                   \n                }\n            }\n            return count;\n    }\n   \n   \n    //owned\n    function getTypeCommoditycount(address _adress) public view returns (uint256) {\n         return users[_adress].OwnedCount;\n    }\n   // quantity of each commodity repeat\n     function getUserCommoditycount(address  p , string memory _name) public view returns (uint256) {\n          uint256 count;\n           for (uint i = 1; i <= users[p].OwnedCount; i++)// to check new commodity is ==gold silver or copper\n           {\n            //commare commodity name\n                if(keccak256(abi.encodePacked(users[p].ownedCommodity[i].name))==keccak256(abi.encodePacked(_name)))\n                {\n                    count =users[p].ownedCommodity[i].quantity;\n                   \n                }\n            }\n            return count;\n    }\n    //ownedCommodity name\n    function nameofcommodity(address  p ,uint _index)public view returns (string memory name)\n    {\n        return users[p]. ownedCommodity[_index].name;\n    }\n   \n\n}\ncontract Commodity {\n    struct commodity {\n        uint id;\n        string name;\n        uint price;\n        address owner;\n        uint quantity;\n        string exchangewith;\n    }\n\n    mapping(uint => commodity) public forSalecommodities;\n    mapping(uint => commodity) public forExchangecommodities;\n   \n    uint public commoditiesforSaleCount;\n    uint public commoditiesforExchangeCount;\n   \n   \n    address admin;\n    address public UserContract;\n   \n    constructor (address _userContract) public {\n         admin=msg.sender;\n         UserContract = _userContract;\n       \n    }\n   \n    modifier onlyAdmin {\n        require(msg.sender == admin);\n        _;\n    }\n\n      function getSalecommoditytotalcount(string memory _name ) public view returns (uint256) {\n     \n      uint256 q=0;\n           for (uint i = 0; i <= commoditiesforSaleCount ; i++)// to check new commodity is ==gold silver or copper\n           {\n            //commare commodity name\n           \n                if(keccak256(abi.encodePacked(forSalecommodities[i].name)) == keccak256(abi.encodePacked(_name)))\n                {\n                    q +=forSalecommodities[i].quantity;\n                   \n                }\n               \n            }\n            return q;\n   \n      }\n\n    function addforSaleCommodities ( string memory _name ,uint _quantity,address _a) public {\n       \n          uint t=0;\n           for (uint i = 0; i <= commoditiesforSaleCount && t==0 ; i++)// to check new commodity is ==gold silver or copper\n           {\n            if(keccak256(abi.encodePacked(forSalecommodities[i].owner))==keccak256(abi.encodePacked(_a)))\n            //commare commodity name\n           \n                if(keccak256(abi.encodePacked(forSalecommodities[i].name))==keccak256(abi.encodePacked(_name)))\n                {\n                    forSalecommodities[i].quantity +=_quantity;\n                    t=1;\n                }\n            }\n            if(t==0){\n                    commoditiesforSaleCount++;\n\n               forSalecommodities[commoditiesforSaleCount] = commodity(commoditiesforSaleCount, _name,0,_a,_quantity,\"null\");\n            }\n   \n    }\n   \n    function decSaleCommodity(uint i,uint _quantity) public{\n    forSalecommodities[i].quantity -=_quantity;\n    }\n   \n      function decExchangeCommodity(uint i,uint _quantity) public{\n    forExchangecommodities[i].quantity -=_quantity;\n    }\n   \n    function addforExchangeCommodities ( string memory _name ,uint _quantity,address _a,string memory  _with) public {\n        commoditiesforExchangeCount++;\n        forExchangecommodities[commoditiesforExchangeCount] = commodity(commoditiesforExchangeCount, _name,0,_a,_quantity,_with);\n    }\n   \n   function addUser ( string memory _name,address _adress,string memory _privatekey) public onlyAdmin {\n             User ContractUser = User(address(UserContract));\n             ContractUser.AddUser(_name,_adress,_privatekey);\n    }\n    function getSaleCommodityCount() public view returns (uint256) {\n    return commoditiesforSaleCount;\n    }\n    function getExchangeCommodityCount() public view returns (uint256) {\n    return commoditiesforExchangeCount;\n    }\n    function getSaleCommodityName(uint256 index) public view  returns (string memory) {\n    return forSalecommodities[index].name;\n    }\n    function getExchangeCommodityName(uint256 index) public view  returns (string memory) {\n    return forExchangecommodities[index].name;\n    }\n    //each commodity quantity\n    function getSaleCommodityQuantity(uint256 index) public view returns (uint256) {\n    return forSalecommodities[index].quantity;\n    }\n    function getExchangeCommodityQuantity(uint256 index) public view returns (uint256) {\n    return forExchangecommodities[index].quantity;\n    }\n   \n    function getSaleCommodityOwner(uint256 index) public view returns (address) {\n    return forSalecommodities[index].owner;\n    }\n    function getExchangeCommodityOwner(uint256 index) public view returns (address) {\n    return forExchangecommodities[index].owner;\n    }\n   \n}\n\n\ncontract SellContract\n{\n   \n    address public Usercontract; // smart contract address of Usercontract\n    address public commodityContract;\n   \n    constructor (address _userContract,address _commodityContract) public payable {\n        Usercontract = _userContract;\n        commodityContract= _commodityContract;\n    }\n   \n    function sellCommodities  (string memory _name,uint _quantity) public payable {\n        User ContractUser = User(address(Usercontract));\n        Commodity ContractCommodity =  Commodity(address(commodityContract));\n       \n        //check quantity\n         uint q=ContractUser.getcommodityquantity(msg.sender, _name);\n        if(q >= _quantity)\n        {                 //add to for sale list\n                          ContractCommodity.addforSaleCommodities (_name ,_quantity,msg.sender);\n                          //add to user pending list\n                          ContractUser.addtoSalePendinglist(msg.sender,_name,0, _quantity);\n                           \n        }\n       \n       \n  }  \n}\n\ncontract ExchangeContract\n{\n    address public Usercontract; // smart contract address of Usercontract\n    address public commodityContract;\n    address public NotificationContract;\n    address public HistoryContract;\n    User public ContractUser;\n Commodity public ContractCommodity;\n    Notification public ContractNotification;\n History public ContractHistory;\n    address public a;\n    uint256 returnvalue;\n    uint256 public withquantityreturn;\n    function getReturnValue() public view returns(uint256)\n    {\n        return returnvalue;\n    }\n\n    constructor (address _userContract,address _commodityContract,address notfication,address _History) public  {\n        Usercontract = _userContract;\n        commodityContract= _commodityContract;\n          NotificationContract= notfication;\n     HistoryContract=_History;    \n         ContractUser = User(address(Usercontract));\n        ContractCommodity =  Commodity(address(commodityContract));\n           ContractHistory=History(address(HistoryContract));\n              ContractNotification =Notification(address(NotificationContract));\n                                 \n   \n     \n   \n    }\n   \n    //check exist exchange yes no\n    //pendling yes no\n    //nofication array\n   \n    function exchangeCommodities  (string memory _name,uint  _quantity,uint _price,uint _withprice,string memory _namewith,string memory _date) public returns (uint256)  {\n     \n        if(ContractUser.getcommodityquantity(msg.sender, _name) >= _quantity)\n        {\n           \n              //check if namewith is in the list of exchangeforcommodities ///in my case sale for commodities\n                uint yes=0;\n                for(uint i=1;i <= ContractCommodity.getExchangeCommodityCount() && yes==0;i++)\n                {\n                      if(keccak256(abi.encodePacked(ContractCommodity.getExchangeCommodityName(i)))==keccak256(abi.encodePacked(_namewith)))\n                      {\n                          if(ContractCommodity.getExchangeCommodityOwner(i)!=msg.sender)\n                          {\n                                  uint p=_withprice;\n                        uint  withquantity=1;\n                         \n                            for(;p<=(_price*_quantity);)\n                                {\n                               p=p+_withprice;\n                               if(p<=(_price*_quantity))\n                               withquantity=withquantity+1;//quantity od c2\n                                }\n                                if(ContractCommodity.getExchangeCommodityQuantity(i)>=withquantity)\n                                {  \n                                     yes=1;\n                                    withquantityreturn=withquantity;\n                                   returnvalue= i;\n                                }\n               \n                          }\n                      }\n               \n                     \n             \n                }\n               \n                if(yes == 0)//no match add in exchange with list\n                {\n                            ContractCommodity.addforExchangeCommodities (_name ,_quantity,msg.sender,_namewith);\n                           \n                            //add to pending exchanfe list\n                            ContractUser.addtoExchangePendinglist(msg.sender, _name, _price, _quantity);\n                           returnvalue= 0;\n                           \n                }\n               \n        }\n\n   }\n   function remaningExchange (string memory _name,uint  _quantity,uint _price,uint withprice,string memory _namewith,string memory _date,uint256 index ) public returns(uint256)\n   {\n                     \n                       \n                       index=returnvalue;\n                       if(returnvalue!=0)\n                       {\n     \n        address owner= ContractCommodity.getExchangeCommodityOwner(index);\n         ContractUser.addcommodity(msg.sender,_namewith, withquantityreturn);\n                                  ContractUser.deccommodity(owner,_namewith,withquantityreturn);\n                                   \n                                   ContractUser.addcommodity(owner ,_name,  _quantity);\n                                   ContractUser.deccommodity( msg.sender,_name, _quantity);\n                                   //history\n                                    return withquantityreturn;\n                             \n                       }\n   }    \nfunction exchangeHistory(string memory _name,uint  _quantity,uint _price,uint withprice,string memory _namewith,string memory _date ) public{\n        if(returnvalue!=0)\n                       {  \n       uint256 index=returnvalue;\n        address owner= ContractCommodity.getExchangeCommodityOwner(index);\n          ContractHistory.addtoExchangeHistorylist(_price,_date, owner, msg.sender, _name,_namewith, _quantity);\n         \n                       }\n                                   //pending list\n                               \n   \n}  \nfunction exchangeNotificationPending(string memory _name,uint  _quantity,uint _price,uint withprice,string memory _namewith,string memory _date) public{\n       \n        if(returnvalue!=0)\n                       {      uint256 index=returnvalue;\n       uint256 withquantity=withquantityreturn;\n       address owner= ContractCommodity.getExchangeCommodityOwner(index);\n                                   //pending list\n                                    ContractUser.dectoExchangePendinglist(owner,_namewith, withquantity);\n                                   \n                                   //notification\n                          ContractCommodity.decExchangeCommodity(index,withquantityreturn);\n                            ContractNotification. SendExchangeNotification(owner,msg.sender, _quantity,_name, _price, _namewith,_date );\n   \n}\n}\n}\n\ncontract BuyContract\n{\n    address public Usercontract; // smart contract address of Usercontract\n    address public commodityContract;\n    address public NotificationContract;\n    address public HistoryContract;\n    User public ContractUser;\n    uint256 _price;\n    address payable to;\n Commodity public ContractCommodity;\n    Notification public ContractNotification;\n History public ContractHistory;\n string returnaddress;\n    address public a;\n    uint256 returnvalue;\n    uint256 public withquantityreturn;\n    function getReturnValue() public view returns(uint256)\n    {\n        return returnvalue;\n    }\n     function getReturnAddress() public view returns(string memory)\n    {\n        return returnaddress;\n    }\n   \n   \nfunction toAsciiString() public returns (string memory) {\n    address x=a;\n    bytes memory s = new bytes(40);\n    for (uint i = 0; i < 20; i++) {\n        byte b = byte(uint8(uint(x) / (2**(8*(19 - i)))));\n        byte hi = byte(uint8(b) / 16);\n        byte lo = byte(uint8(b) - 16 * uint8(hi));\n        s[2*i] = char(hi);\n        s[2*i+1] = char(lo);            \n    }\n   returnaddress =string(s);\n    return string(s);\n}\n\nfunction char(byte b)public returns (byte c) {\n    if (uint8(b )< 10) return byte(uint8(b) + 0x30);\n    else return byte(uint8(b) + 0x57);\n}\n\n    constructor (address _userContract,address _commodityContract,address notfication,address _History) public  {\n        Usercontract = _userContract;\n        commodityContract= _commodityContract;\n          NotificationContract= notfication;\n     HistoryContract=_History;    \n         ContractUser = User(address(Usercontract));\n        ContractCommodity =  Commodity(address(commodityContract));\n           ContractHistory=History(address(HistoryContract));\n              ContractNotification =Notification(address(NotificationContract));\n                                 \n\n     \n   \n    }\n \n   \n    //check exist exchange yes no\n    //pendling yes no\n    //nofication array\n   \n    function BuyCommodities  (string memory _name,string memory _date,uint _quantity,uint price) public payable   {\n              uint256 balance = ContractUser.getBalance(msg.sender);\n             \n                if((balance)>=price*_quantity)\n                {\n                    for (uint i = 1; i <= ContractCommodity.getSaleCommodityCount() ; i++)\n                    {\n                          if(keccak256(abi.encodePacked(ContractCommodity.getSaleCommodityName(i)))==keccak256(abi.encodePacked(_name)))\n                            {\n                                  if(ContractCommodity.getSaleCommodityQuantity(i) >= _quantity&&ContractCommodity.getSaleCommodityOwner(i)!=msg.sender)\n                                 \n                                    {\n                                        returnvalue=price*_quantity;\n                                       \n                                     //   to=payable(ContractCommodity.getSaleCommodityOwner(i));\n                                        a=ContractCommodity.getSaleCommodityOwner(i);\n                                        _price=price;\n                                       toAsciiString();\n                                       // to.transfer((price)); //transfer to the owner\n                                        //add dec balance\n                            ContractUser.AddBalance(to,price*_quantity);\n                            ContractUser.DecBalance(msg.sender,price*_quantity);//buyer\n                           \n                            //add commodity to user owned commodity list\n                            ContractUser.addcommodity(msg.sender,_name,_quantity);\n                            ContractUser.deccommodity(to,_name,_quantity);\n                           \n                       \n                            //pending list remove\n                         \n                           \n                            //add to sale history of seller\n                           ContractHistory.addtoSaleHistorylist(price,_date, to, msg.sender,_name, _quantity);\n                           \n                           // add to buy history of buyer\n                             ContractHistory.addtoBuyHistorylist(price,_date, to, msg.sender,_name, _quantity);\n                               ContractCommodity.decSaleCommodity(i,_quantity);\n                               ContractUser.dectoSalePendinglist(to,_name, _quantity);\n                            ContractNotification.SendBuyNotification(to,msg.sender, _quantity,_name,price, _name,_date) ;\n     \n                                         \n                                       \n                                    }            \n             \n                            }\n             \n                    }\n                }\n     \n}}\n\n\ncontract Notification{\n    struct notification\n    {\n\n        bool ConfirmFromSeller ;\n        string reqtype;\n        uint price;  // ??? current value\n        string date; // ??\n        address seller;\n        address buyer;\n        string fromcommodityname;\n        string tocommodityname;\n        string state; /// ??\n        uint quantity;\n        uint no_id;\n       \n    }\n    struct notification_array\n    {\n         mapping(uint256 => notification) Notification;\n         uint256 notificationCount;\n       \n       \n    }\n   \n      address public Usercontract; // smart contract address of Usercontract\n      mapping(address => notification_array) users;\n      uint256 usercount;\n \n    constructor () public  {\n     \n    }\n   \n    function addusernotification(address _toAdress) public\n    {\n        users[_toAdress]= notification_array(0);\n        usercount++;\n    }\n function SendExchangeNotification(address _toAddress,address _fromAdress,uint256 _quantity,string memory fromcomtype,uint256 price, string memory withcomtype,string memory _date) public {\n        address i=_toAddress;\n        users[i].Notification[users[i].notificationCount]=notification(false,\"exchange\",price,_date,_toAddress,_fromAdress,fromcomtype,withcomtype,\"false\",_quantity,users[i].notificationCount);\n        users[i].notificationCount++;\n        i=_fromAdress;\n        users[i].Notification[users[i].notificationCount]=notification(false,\"exchange\",price,_date,_toAddress,_fromAdress,fromcomtype,withcomtype,\"false\",_quantity,users[i].notificationCount);\n        users[i].notificationCount++;\n   \n }\n  function SendBuyNotification(address _toAdress,address _fromAdress,uint256 _quantity,string memory fromcomtype,uint256 price, string memory withcomtype,string memory _date) public {\n        address i=_toAdress;\n        users[i].Notification[users[i].notificationCount]=notification(false,\"seller\",price,_date,_toAdress,_fromAdress,fromcomtype,withcomtype,\"false\",_quantity,users[i].notificationCount);\n        users[i].notificationCount++;\n         i=_fromAdress;\n        users[i].Notification[users[i].notificationCount]=notification(false,\"buyer\",price,_date,_toAdress,_fromAdress,fromcomtype,withcomtype,\"false\",_quantity,users[i].notificationCount);\n        users[i].notificationCount++;\n   \n }\n function getNotificationCount(address i)public view returns (uint256) {\n      return users[i].notificationCount;\n     \n  }\n function getNotificationReqType(address i,uint256 index)public view returns (string memory) {\n      return users[i].Notification[index].reqtype;\n     \n  }\n function getNotificationPrice(address i,uint256 index)public view returns (uint256) {\n      return users[i].Notification[index].price;\n     \n  }\n function getNotificationDate(address i,uint256 index)public view returns (string memory) {\n      return users[i].Notification[index].date;\n     \n  }\n function getNotificationSeller(address i,uint256 index)public view returns (address) {\n      return users[i].Notification[index].seller;\n     \n  }\n function getNotificationBuyer(address i,uint256 index)public view returns (address) {\n      return users[i].Notification[index].buyer;\n     \n  }\n function getNotificationFromCommodityName(address i,uint256 index)public view returns (string memory) {\n      return users[i].Notification[index].fromcommodityname;\n     \n  }\n function getNotificationToCommodityName(address i,uint256 index)public view returns (string memory) {\n      return users[i].Notification[index].tocommodityname;\n     \n  }\n function getNotificationState(address i,uint256 index)public view returns (string memory) {\n      return users[i].Notification[index].state;\n     \n  }\n function getNotificationQuantity(address i,uint256 index)public view returns (uint256){\n      return users[i].Notification[index].quantity;\n     \n  }\n function getNotificationId(address i,uint256 index)public view returns (uint256){\n      return users[i].Notification[index].no_id;\n     \n  }\n function SendConfirmationNotification(address _toAdress,address _fromAdress,uint256 _quantity,string memory fromcomtype,uint256 price ,string memory withcomtype,string memory _date) public {\n    address i=_toAdress;\n    users[i].Notification[users[i].notificationCount]=notification(false,\"Accepted\",price,_date,_toAdress,_fromAdress,fromcomtype,withcomtype,\"false\",_quantity,users[i].notificationCount);\n    users[i].notificationCount++;\n\n }\n   function SendRejectionNotification(address _toAdress,address _fromAdress,uint256 _quantity,string memory fromcomtype,uint256 price ,string memory withcomtype,string memory _date) public {\n     address i=_toAdress;\n     users[i].Notification[users[i].notificationCount]=notification(false,\"Rejected\",price,_date,_toAdress,_fromAdress,fromcomtype,withcomtype,\"false\",_quantity,users[i].notificationCount);\n     users[i].notificationCount++;\n   \n }\n //alert\n  function deleteNotification(address i,uint id,string memory ans) public {\n         users[i].Notification[id].state=\"true\";\n///     if(keccak256(abi.encodePacked(\"accept\"))==keccak256(abi.encodePacked(ans)))\n    {\n    //   SendConfirmationNotification(users[i].Notification[id].buyer,users[i].Notification[id].seller,users[i].Notification[id].quantity,users[i].Notification[id].fromcommodityname,users[i].Notification[id].price ,users[i].Notification[id].tocommodityname,users[i].Notification[id].date);\n       \n    }\n //   else\n    {\n   //    SendRejectionNotification(users[i].Notification[id].buyer,users[i].Notification[id].seller,users[i].Notification[id].quantity,users[i].Notification[id].fromcommodityname,users[i].Notification[id].price ,users[i].Notification[id].tocommodityname,users[i].Notification[id].date);\n       \n    }\n }\n \n}\n\ncontract History{\n   \n     ////history struct\n   struct history\n    {\n         uint no_id;\n        uint price;  \n        string date;\n        address seller;\n        address buyer;\n        string fromcommodityname;\n        string tocommodityname;\n        uint quantity;\n    }\n     \n        struct history_array\n    {\n         mapping(uint256 => history) SaleHistory;\n         mapping(uint256 => history) BuyHistory;\n         mapping(uint256 => history) ExchangeHistory;\n         \n         uint256 HistorySaleCount;\n         uint256 HistoryBuyCount;\n         uint256 HistoryExchangeCount;\n       \n    }\n      address public Usercontract; // smart contract address of Usercontract\n      mapping(address => history_array) users;\n      uint256 usercount;\n   \n    constructor () public {\n       \n    }\n \n  function adduserhistory(address _address) public\n  {\n      users[_address]= history_array(0,0,0);\n        usercount++;\n  }\n     \n  function addtoSaleHistorylist(uint _price,string memory _date, address _seller, address _buyer,string memory _fromcommodityname , uint _quantity) public\n  {\n                users[_seller]. SaleHistory[users[_seller].HistorySaleCount]=history(users[_seller].HistorySaleCount,_price,_date, _seller,_buyer,_fromcommodityname,_fromcommodityname,_quantity);\n                users[_seller].HistorySaleCount++;\n    }\n// same  for exchane and buy\n function addtoBuyHistorylist(uint _price,string memory _date, address _seller, address _buyer,string memory _fromcommodityname, uint _quantity) public\n  {\n                users[_buyer]. BuyHistory[users[_buyer].HistoryBuyCount]=history(users[_buyer].HistoryBuyCount,_price,_date, _seller,_buyer,_fromcommodityname,_fromcommodityname,_quantity);\n                users[_buyer].HistoryBuyCount++;\n    }\n// same  for exchane and buy\n function addtoExchangeHistorylist(uint _price,string memory _date, address _seller, address _buyer,string memory _fromcommodityname,string memory _tocommodityname, uint _quantity) public\n  {\n                users[_buyer].ExchangeHistory[users[_buyer].HistoryExchangeCount]=history(users[_buyer].HistoryExchangeCount,_price,_date, _seller,_buyer,_fromcommodityname,_tocommodityname,_quantity);\n                users[_buyer].HistoryExchangeCount++;\n               \n                users[_seller].ExchangeHistory[users[_seller].HistoryExchangeCount]=history(users[_seller].HistoryExchangeCount,_price,_date, _seller,_buyer,_fromcommodityname,_tocommodityname,_quantity);\n               users[_seller].HistoryExchangeCount++;\n               \n    }\n    function getHistorySaleCount(address i)public view returns (uint256) {\n      return users[i].HistorySaleCount;\n  }\n   function getHistoryExchangeCount(address i)public view returns (uint256) {\n      return users[i].HistoryExchangeCount;\n  }\n  function getHistoryBuyCount(address i)public view returns (uint256) {\n      return users[i].HistoryBuyCount;\n  }\n \n   function getHistorySaleNameCommodity(address i,uint256 index)public view returns (string memory ) {\n      return users[i].SaleHistory[index].fromcommodityname;\n  }\n   function getHistoryExchangeFromNameCommodity(address i,uint256 index)public view returns (string memory) {\n      return users[i].ExchangeHistory[index].fromcommodityname;\n  }\n   function getHistoryExchangetoNameCommodity(address i,uint256 index)public view returns (string memory) {\n      return users[i].ExchangeHistory[index].tocommodityname;\n  }\n   function getHistoryBuyNameCommodity(address i,uint256 index)public view returns (string memory) {\n      return users[i].BuyHistory[index].fromcommodityname;\n  }\n \n   function getHistorySalePrice(address i,uint256 index)public view returns (uint256) {\n      return users[i].SaleHistory[index].price;\n  }\n   function getHistoryExchangePrice(address i,uint256 index)public view returns (uint256) {\n      return users[i].ExchangeHistory[index].price;\n  }\n   function getHistoryBuyPrice(address i,uint256 index)public view returns (uint256) {\n      return users[i].BuyHistory[index].price;\n  }\n \n   function getHistorySaleQuantity(address i,uint256 index)public view returns (uint256) {\n      return users[i].SaleHistory[index].quantity;\n  }\n   function getHistoryExchangeQuantity(address i,uint256 index)public view returns (uint256) {\n      return users[i].ExchangeHistory[index].quantity;\n  }\n   function getHistoryBuyQuantity(address i,uint256 index)public view returns (uint256) {\n      return users[i].BuyHistory[index].quantity;\n  }\n     \n   \n}",
  "sourcePath": "/Users/mac/Desktop/marketplace-master/src/contracts/Fypcontracts.sol",
  "compiler": {
    "name": "solc",
    "version": "0.5.16+commit.9c3226ce.Emscripten.clang"
  },
  "schemaVersion": "3.0.23",
  "updatedAt": "2020-06-11T14:46:53.812Z",
  "networkType": "ethereum",
  "devdoc": {
    "methods": {}
  },
  "userdoc": {
    "methods": {}
  }
}